{
  "abi": [
    {
      "inputs": [
        {
          "internalType": "address[]",
          "name": "existingHolders",
          "type": "address[]"
        },
        {
          "internalType": "uint256[]",
          "name": "existingAmounts",
          "type": "uint256[]"
        },
        {
          "internalType": "string",
          "name": "name_",
          "type": "string"
        },
        {
          "internalType": "string",
          "name": "symbol_",
          "type": "string"
        },
        {
          "internalType": "uint256",
          "name": "inflationCapPeriod_",
          "type": "uint256"
        },
        {
          "internalType": "uint256",
          "name": "inflationCapWad_",
          "type": "uint256"
        },
        {
          "internalType": "uint256",
          "name": "inflationLockPeriod_",
          "type": "uint256"
        }
      ],
      "stateMutability": "nonpayable",
      "type": "constructor"
    },
    {
      "anonymous": false,
      "inputs": [
        {
          "indexed": true,
          "internalType": "address",
          "name": "owner",
          "type": "address"
        },
        {
          "indexed": true,
          "internalType": "address",
          "name": "spender",
          "type": "address"
        },
        {
          "indexed": false,
          "internalType": "uint256",
          "name": "value",
          "type": "uint256"
        }
      ],
      "name": "Approval",
      "type": "event"
    },
    {
      "anonymous": false,
      "inputs": [
        {
          "indexed": false,
          "internalType": "address",
          "name": "minter",
          "type": "address"
        },
        {
          "indexed": false,
          "internalType": "address",
          "name": "to",
          "type": "address"
        },
        {
          "indexed": false,
          "internalType": "uint256",
          "name": "amount",
          "type": "uint256"
        }
      ],
      "name": "InflationTokensMinted",
      "type": "event"
    },
    {
      "anonymous": false,
      "inputs": [
        {
          "indexed": true,
          "internalType": "address",
          "name": "previousOwner",
          "type": "address"
        },
        {
          "indexed": true,
          "internalType": "address",
          "name": "newOwner",
          "type": "address"
        }
      ],
      "name": "OwnershipTransferStarted",
      "type": "event"
    },
    {
      "anonymous": false,
      "inputs": [
        {
          "indexed": true,
          "internalType": "address",
          "name": "previousOwner",
          "type": "address"
        },
        {
          "indexed": true,
          "internalType": "address",
          "name": "newOwner",
          "type": "address"
        }
      ],
      "name": "OwnershipTransferred",
      "type": "event"
    },
    {
      "anonymous": false,
      "inputs": [
        {
          "indexed": false,
          "internalType": "address",
          "name": "newToken",
          "type": "address"
        },
        {
          "indexed": false,
          "internalType": "string",
          "name": "name",
          "type": "string"
        },
        {
          "indexed": false,
          "internalType": "string",
          "name": "symbol",
          "type": "string"
        },
        {
          "indexed": false,
          "internalType": "address[]",
          "name": "existingHolders",
          "type": "address[]"
        },
        {
          "indexed": false,
          "internalType": "uint256[]",
          "name": "existingsAmounts",
          "type": "uint256[]"
        },
        {
          "indexed": false,
          "internalType": "uint256",
          "name": "inflationCapPeriod",
          "type": "uint256"
        },
        {
          "indexed": false,
          "internalType": "uint256",
          "name": "inflationCapWad",
          "type": "uint256"
        },
        {
          "indexed": false,
          "internalType": "uint256",
          "name": "inflationLockPeriod",
          "type": "uint256"
        }
      ],
      "name": "TokenUpdated",
      "type": "event"
    },
    {
      "anonymous": false,
      "inputs": [
        {
          "indexed": false,
          "internalType": "address",
          "name": "minter",
          "type": "address"
        },
        {
          "indexed": false,
          "internalType": "address[]",
          "name": "newHolders",
          "type": "address[]"
        },
        {
          "indexed": false,
          "internalType": "uint256[]",
          "name": "newAmounts",
          "type": "uint256[]"
        }
      ],
      "name": "TokensMinted",
      "type": "event"
    },
    {
      "anonymous": false,
      "inputs": [
        {
          "indexed": true,
          "internalType": "address",
          "name": "from",
          "type": "address"
        },
        {
          "indexed": true,
          "internalType": "address",
          "name": "to",
          "type": "address"
        },
        {
          "indexed": false,
          "internalType": "uint256",
          "name": "value",
          "type": "uint256"
        }
      ],
      "name": "Transfer",
      "type": "event"
    },
    {
      "inputs": [],
      "name": "INITIAL_SUPPLY_CAP",
      "outputs": [
        {
          "internalType": "uint256",
          "name": "",
          "type": "uint256"
        }
      ],
      "stateMutability": "view",
      "type": "function"
    },
    {
      "inputs": [],
      "name": "WAD_ONE",
      "outputs": [
        {
          "internalType": "uint256",
          "name": "",
          "type": "uint256"
        }
      ],
      "stateMutability": "view",
      "type": "function"
    },
    {
      "inputs": [],
      "name": "acceptOwnership",
      "outputs": [],
      "stateMutability": "nonpayable",
      "type": "function"
    },
    {
      "inputs": [
        {
          "internalType": "address",
          "name": "owner",
          "type": "address"
        },
        {
          "internalType": "address",
          "name": "spender",
          "type": "address"
        }
      ],
      "name": "allowance",
      "outputs": [
        {
          "internalType": "uint256",
          "name": "",
          "type": "uint256"
        }
      ],
      "stateMutability": "view",
      "type": "function"
    },
    {
      "inputs": [
        {
          "internalType": "address",
          "name": "spender",
          "type": "address"
        },
        {
          "internalType": "uint256",
          "name": "amount",
          "type": "uint256"
        }
      ],
      "name": "approve",
      "outputs": [
        {
          "internalType": "bool",
          "name": "",
          "type": "bool"
        }
      ],
      "stateMutability": "nonpayable",
      "type": "function"
    },
    {
      "inputs": [
        {
          "internalType": "address",
          "name": "account",
          "type": "address"
        }
      ],
      "name": "balanceOf",
      "outputs": [
        {
          "internalType": "uint256",
          "name": "",
          "type": "uint256"
        }
      ],
      "stateMutability": "view",
      "type": "function"
    },
    {
      "inputs": [],
      "name": "currentPeriodEnd",
      "outputs": [
        {
          "internalType": "uint256",
          "name": "",
          "type": "uint256"
        }
      ],
      "stateMutability": "view",
      "type": "function"
    },
    {
      "inputs": [],
      "name": "currentPeriodSupplyCap",
      "outputs": [
        {
          "internalType": "uint256",
          "name": "",
          "type": "uint256"
        }
      ],
      "stateMutability": "view",
      "type": "function"
    },
    {
      "inputs": [],
      "name": "decimals",
      "outputs": [
        {
          "internalType": "uint8",
          "name": "",
          "type": "uint8"
        }
      ],
      "stateMutability": "view",
      "type": "function"
    },
    {
      "inputs": [
        {
          "internalType": "address",
          "name": "spender",
          "type": "address"
        },
        {
          "internalType": "uint256",
          "name": "subtractedValue",
          "type": "uint256"
        }
      ],
      "name": "decreaseAllowance",
      "outputs": [
        {
          "internalType": "bool",
          "name": "",
          "type": "bool"
        }
      ],
      "stateMutability": "nonpayable",
      "type": "function"
    },
    {
      "inputs": [
        {
          "internalType": "address",
          "name": "spender",
          "type": "address"
        },
        {
          "internalType": "uint256",
          "name": "addedValue",
          "type": "uint256"
        }
      ],
      "name": "increaseAllowance",
      "outputs": [
        {
          "internalType": "bool",
          "name": "",
          "type": "bool"
        }
      ],
      "stateMutability": "nonpayable",
      "type": "function"
    },
    {
      "inputs": [],
      "name": "inflationCapPeriod",
      "outputs": [
        {
          "internalType": "uint256",
          "name": "",
          "type": "uint256"
        }
      ],
      "stateMutability": "view",
      "type": "function"
    },
    {
      "inputs": [],
      "name": "inflationCapWad",
      "outputs": [
        {
          "internalType": "uint256",
          "name": "",
          "type": "uint256"
        }
      ],
      "stateMutability": "view",
      "type": "function"
    },
    {
      "inputs": [],
      "name": "inflationUnlockTime",
      "outputs": [
        {
          "internalType": "uint256",
          "name": "",
          "type": "uint256"
        }
      ],
      "stateMutability": "view",
      "type": "function"
    },
    {
      "inputs": [],
      "name": "initialMintDone",
      "outputs": [
        {
          "internalType": "bool",
          "name": "",
          "type": "bool"
        }
      ],
      "stateMutability": "view",
      "type": "function"
    },
    {
      "inputs": [
        {
          "internalType": "address",
          "name": "to",
          "type": "address"
        },
        {
          "internalType": "uint256",
          "name": "amount",
          "type": "uint256"
        }
      ],
      "name": "mintInflation",
      "outputs": [],
      "stateMutability": "nonpayable",
      "type": "function"
    },
    {
      "inputs": [
        {
          "internalType": "address[]",
          "name": "newHolders",
          "type": "address[]"
        },
        {
          "internalType": "uint256[]",
          "name": "newAmounts",
          "type": "uint256[]"
        }
      ],
      "name": "mintOnce",
      "outputs": [],
      "stateMutability": "nonpayable",
      "type": "function"
    },
    {
      "inputs": [],
      "name": "minter",
      "outputs": [
        {
          "internalType": "address",
          "name": "",
          "type": "address"
        }
      ],
      "stateMutability": "view",
      "type": "function"
    },
    {
      "inputs": [],
      "name": "name",
      "outputs": [
        {
          "internalType": "string",
          "name": "",
          "type": "string"
        }
      ],
      "stateMutability": "view",
      "type": "function"
    },
    {
      "inputs": [],
      "name": "owner",
      "outputs": [
        {
          "internalType": "address",
          "name": "",
          "type": "address"
        }
      ],
      "stateMutability": "view",
      "type": "function"
    },
    {
      "inputs": [],
      "name": "pendingOwner",
      "outputs": [
        {
          "internalType": "address",
          "name": "",
          "type": "address"
        }
      ],
      "stateMutability": "view",
      "type": "function"
    },
    {
      "inputs": [],
      "name": "renounceOwnership",
      "outputs": [],
      "stateMutability": "view",
      "type": "function"
    },
    {
      "inputs": [
        {
          "internalType": "address",
          "name": "minter_",
          "type": "address"
        }
      ],
      "name": "setMinter",
      "outputs": [],
      "stateMutability": "nonpayable",
      "type": "function"
    },
    {
      "inputs": [],
      "name": "symbol",
      "outputs": [
        {
          "internalType": "string",
          "name": "",
          "type": "string"
        }
      ],
      "stateMutability": "view",
      "type": "function"
    },
    {
      "inputs": [],
      "name": "totalSupply",
      "outputs": [
        {
          "internalType": "uint256",
          "name": "",
          "type": "uint256"
        }
      ],
      "stateMutability": "view",
      "type": "function"
    },
    {
      "inputs": [
        {
          "internalType": "address",
          "name": "to",
          "type": "address"
        },
        {
          "internalType": "uint256",
          "name": "amount",
          "type": "uint256"
        }
      ],
      "name": "transfer",
      "outputs": [
        {
          "internalType": "bool",
          "name": "",
          "type": "bool"
        }
      ],
      "stateMutability": "nonpayable",
      "type": "function"
    },
    {
      "inputs": [
        {
          "internalType": "address",
          "name": "from",
          "type": "address"
        },
        {
          "internalType": "address",
          "name": "to",
          "type": "address"
        },
        {
          "internalType": "uint256",
          "name": "amount",
          "type": "uint256"
        }
      ],
      "name": "transferFrom",
      "outputs": [
        {
          "internalType": "bool",
          "name": "",
          "type": "bool"
        }
      ],
      "stateMutability": "nonpayable",
      "type": "function"
    },
    {
      "inputs": [
        {
          "internalType": "address",
          "name": "newOwner",
          "type": "address"
        }
      ],
      "name": "transferOwnership",
      "outputs": [],
      "stateMutability": "nonpayable",
      "type": "function"
    }
  ],
  "bytecode": {
    "object": "0x60e06040523480156200001157600080fd5b5060405162001be438038062001be483398101604081905262000034916200056c565b3385856003620000458382620006d1565b506004620000548282620006d1565b5050506200006881620001ac60201b60201c565b5086518651146200007857600080fd5b826000036200008657600080fd5b6006805460ff60a01b19169055600780546001600160a01b031916905560a083905260c0829052620000b94282620007b3565b6080526000600881905560098190555b875181101562000134576200011f6000898381518110620000ee57620000ee620007cf565b60200260200101518984815181106200010b576200010b620007cf565b6020026020010151620001ca60201b60201c565b806200012b81620007e5565b915050620000c9565b506b204fce5e3e250261100000006200014c60025490565b11156200015857600080fd5b7faee8e7775c0f19be8de058a7cc5030a18741bdaf05c535e36780ed390af0b3ba3086868a8a888888604051620001979897969594939291906200086c565b60405180910390a1505050505050506200091d565b600680546001600160a01b0319169055620001c78162000325565b50565b6001600160a01b038316620001f9578060026000828254620001ed9190620007b3565b90915550620002959050565b6001600160a01b03831660009081526020819052604090205481811015620002765760405162461bcd60e51b815260206004820152602660248201527f45524332303a207472616e7366657220616d6f756e7420657863656564732062604482015265616c616e636560d01b606482015260840160405180910390fd5b6001600160a01b03841660009081526020819052604090209082900390555b6001600160a01b038216620002b357600280548290039055620002d2565b6001600160a01b03821660009081526020819052604090208054820190555b816001600160a01b0316836001600160a01b03167fddf252ad1be2c89b69c2b068fc378daa952ba7f163c4a11628f55a4df523b3ef836040516200031891815260200190565b60405180910390a3505050565b600580546001600160a01b038381166001600160a01b0319831681179093556040519116919082907f8be0079c531659141344cd1fd0a4f28419497f9722a3daafe3b4186f6b6457e090600090a35050565b634e487b7160e01b600052604160045260246000fd5b604051601f8201601f191681016001600160401b0381118282101715620003b857620003b862000377565b604052919050565b60006001600160401b03821115620003dc57620003dc62000377565b5060051b60200190565b600082601f830112620003f857600080fd5b81516020620004116200040b83620003c0565b6200038d565b82815260059290921b840181019181810190868411156200043157600080fd5b8286015b84811015620004655780516001600160a01b0381168114620004575760008081fd5b835291830191830162000435565b509695505050505050565b600082601f8301126200048257600080fd5b81516020620004956200040b83620003c0565b82815260059290921b84018101918181019086841115620004b557600080fd5b8286015b84811015620004655780518352918301918301620004b9565b60005b83811015620004ef578181015183820152602001620004d5565b50506000910152565b600082601f8301126200050a57600080fd5b81516001600160401b0381111562000526576200052662000377565b6200053b601f8201601f19166020016200038d565b8181528460208386010111156200055157600080fd5b62000564826020830160208701620004d2565b949350505050565b600080600080600080600060e0888a0312156200058857600080fd5b87516001600160401b0380821115620005a057600080fd5b620005ae8b838c01620003e6565b985060208a0151915080821115620005c557600080fd5b620005d38b838c0162000470565b975060408a0151915080821115620005ea57600080fd5b620005f88b838c01620004f8565b965060608a01519150808211156200060f57600080fd5b506200061e8a828b01620004f8565b9450506080880151925060a0880151915060c0880151905092959891949750929550565b600181811c908216806200065757607f821691505b6020821081036200067857634e487b7160e01b600052602260045260246000fd5b50919050565b601f821115620006cc57600081815260208120601f850160051c81016020861015620006a75750805b601f850160051c820191505b81811015620006c857828155600101620006b3565b5050505b505050565b81516001600160401b03811115620006ed57620006ed62000377565b6200070581620006fe845462000642565b846200067e565b602080601f8311600181146200073d5760008415620007245750858301515b600019600386901b1c1916600185901b178555620006c8565b600085815260208120601f198616915b828110156200076e578886015182559484019460019091019084016200074d565b50858210156200078d5787850151600019600388901b60f8161c191681555b5050505050600190811b01905550565b634e487b7160e01b600052601160045260246000fd5b80820180821115620007c957620007c96200079d565b92915050565b634e487b7160e01b600052603260045260246000fd5b600060018201620007fa57620007fa6200079d565b5060010190565b600081518084526200081b816020860160208601620004d2565b601f01601f19169290920160200192915050565b600081518084526020808501945080840160005b83811015620008615781518752958201959082019060010162000843565b509495945050505050565b6001600160a01b038981168252610100602080840182905260009290620008968584018d62000801565b92508483036040860152620008ac838c62000801565b85810360608701528a51808252828c0194509082019060005b81811015620008e5578551851683529483019491830191600101620008c5565b50508581036080870152620008fb818b6200082f565b60a08701999099525050505060c082019390935260e001525095945050505050565b60805160a05160c05161128262000962600039600081816101cd01526107e60152600081816102d001526107a1015260008181610300015261076701526112826000f3fe608060405234801561001057600080fd5b50600436106101c35760003560e01c8063715018a6116100f9578063a9059cbb11610097578063dd62ed3e11610071578063dd62ed3e146103d8578063e30c3978146103eb578063f2fde38b146103fc578063fca3b5aa1461040f57600080fd5b8063a9059cbb146103a3578063be5ddb99146103b6578063cee8d013146103c957600080fd5b80638da5cb5b116100d35780638da5cb5b1461036e57806395d89b411461037f57806395dba44c14610387578063a457c2d71461039057600080fd5b8063715018a61461034b57806379ba509714610353578063883c3a631461035b57600080fd5b8063313ce5671161016657806341e65e0b1161014057806341e65e0b146102cb57806358794456146102f25780635915b17e146102fb57806370a082311461032257600080fd5b8063313ce5671461029557806336c545ca146102a457806339509351146102b857600080fd5b8063085624ed116101a2578063085624ed14610242578063095ea7b31461025757806318160ddd1461027a57806323b872dd1461028257600080fd5b806216d010146101c857806306fdde03146102025780630754617214610217575b600080fd5b6101ef7f000000000000000000000000000000000000000000000000000000000000000081565b6040519081526020015b60405180910390f35b61020a610422565b6040516101f99190610e32565b60075461022a906001600160a01b031681565b6040516001600160a01b0390911681526020016101f9565b610255610250366004610f72565b6104b4565b005b61026a610265366004611032565b6105af565b60405190151581526020016101f9565b6002546101ef565b61026a61029036600461105c565b6105c9565b604051601281526020016101f9565b60065461026a90600160a01b900460ff1681565b61026a6102c6366004611032565b6105ed565b6101ef7f000000000000000000000000000000000000000000000000000000000000000081565b6101ef60085481565b6101ef7f000000000000000000000000000000000000000000000000000000000000000081565b6101ef610330366004611098565b6001600160a01b031660009081526020819052604090205490565b61025561060f565b610255610617565b6101ef6b204fce5e3e2502611000000081565b6005546001600160a01b031661022a565b61020a610696565b6101ef60095481565b61026a61039e366004611032565b6106a5565b61026a6103b1366004611032565b610720565b6102556103c4366004611032565b61072e565b6101ef670de0b6b3a764000081565b6101ef6103e63660046110ba565b610888565b6006546001600160a01b031661022a565b61025561040a366004611098565b6108b3565b61025561041d366004611098565b610924565b606060038054610431906110ed565b80601f016020809104026020016040519081016040528092919081815260200182805461045d906110ed565b80156104aa5780601f1061047f576101008083540402835291602001916104aa565b820191906000526020600020905b81548152906001019060200180831161048d57829003601f168201915b5050505050905090565b6104bc61094e565b600654600160a01b900460ff16156104d357600080fd5b80518251146104e157600080fd5b6006805460ff60a01b1916600160a01b17905560005b825181101561054e5761053c83828151811061051557610515611127565b602002602001015183838151811061052f5761052f611127565b60200260200101516109aa565b8061054681611153565b9150506104f7565b506b204fce5e3e2502611000000061056560025490565b111561057057600080fd5b7f0436dcb8b7b3be78d785be7ea8f04f241ce5d275057aea7f7fd4b6e4dfda3aa43383836040516105a39392919061116c565b60405180910390a15050565b6000336105bd818585610a10565b60019150505b92915050565b6000336105d7858285610b35565b6105e2858585610baf565b506001949350505050565b6000336105bd8185856106008383610888565b61060a9190611200565b610a10565b6101c361094e565b60065433906001600160a01b0316811461068a5760405162461bcd60e51b815260206004820152602960248201527f4f776e61626c6532537465703a2063616c6c6572206973206e6f7420746865206044820152683732bb9037bbb732b960b91b60648201526084015b60405180910390fd5b61069381610c85565b50565b606060048054610431906110ed565b600033816106b38286610888565b9050838110156107135760405162461bcd60e51b815260206004820152602560248201527f45524332303a2064656372656173656420616c6c6f77616e63652062656c6f77604482015264207a65726f60d81b6064820152608401610681565b6105e28286868403610a10565b6000336105bd818585610baf565b6001600160a01b03821661074157600080fd5b8060000361074e57600080fd5b6007546001600160a01b0316331461076557600080fd5b7f000000000000000000000000000000000000000000000000000000000000000042101561079257600080fd5b600854421115610827576107c67f000000000000000000000000000000000000000000000000000000000000000042611200565b60085560006107d460025490565b90506000670de0b6b3a764000061080b7f000000000000000000000000000000000000000000000000000000000000000084611213565b610815919061122a565b90506108218183611200565b60095550505b61083182826109aa565b600954600254111561084257600080fd5b604080513381526001600160a01b03841660208201529081018290527f0188e46dffface414ae6c071b6f739093e36d85d0f016e3d159dffe68c1b08cf906060016105a3565b6001600160a01b03918216600090815260016020908152604080832093909416825291909152205490565b6108bb61094e565b600680546001600160a01b0383166001600160a01b031990911681179091556108ec6005546001600160a01b031690565b6001600160a01b03167f38d16b8cac22d99fc7c124b9cd0de2d3fa1faef420bfe791d8c362d765e2270060405160405180910390a350565b61092c61094e565b600780546001600160a01b0319166001600160a01b0392909216919091179055565b6005546001600160a01b031633146109a85760405162461bcd60e51b815260206004820181905260248201527f4f776e61626c653a2063616c6c6572206973206e6f7420746865206f776e65726044820152606401610681565b565b6001600160a01b038216610a005760405162461bcd60e51b815260206004820152601f60248201527f45524332303a206d696e7420746f20746865207a65726f2061646472657373006044820152606401610681565b610a0c60008383610c9e565b5050565b6001600160a01b038316610a725760405162461bcd60e51b8152602060048201526024808201527f45524332303a20617070726f76652066726f6d20746865207a65726f206164646044820152637265737360e01b6064820152608401610681565b6001600160a01b038216610ad35760405162461bcd60e51b815260206004820152602260248201527f45524332303a20617070726f766520746f20746865207a65726f206164647265604482015261737360f01b6064820152608401610681565b6001600160a01b0383811660008181526001602090815260408083209487168084529482529182902085905590518481527f8c5be1e5ebec7d5bd14f71427d1e84f3dd0314c0f7b2291e5b200ac8c7c3b92591015b60405180910390a3505050565b6000610b418484610888565b90506000198114610ba95781811015610b9c5760405162461bcd60e51b815260206004820152601d60248201527f45524332303a20696e73756666696369656e7420616c6c6f77616e63650000006044820152606401610681565b610ba98484848403610a10565b50505050565b6001600160a01b038316610c135760405162461bcd60e51b815260206004820152602560248201527f45524332303a207472616e736665722066726f6d20746865207a65726f206164604482015264647265737360d81b6064820152608401610681565b6001600160a01b038216610c755760405162461bcd60e51b815260206004820152602360248201527f45524332303a207472616e7366657220746f20746865207a65726f206164647260448201526265737360e81b6064820152608401610681565b610c80838383610c9e565b505050565b600680546001600160a01b031916905561069381610de0565b6001600160a01b038316610cc9578060026000828254610cbe9190611200565b90915550610d609050565b6001600160a01b03831660009081526020819052604090205481811015610d415760405162461bcd60e51b815260206004820152602660248201527f45524332303a207472616e7366657220616d6f756e7420657863656564732062604482015265616c616e636560d01b6064820152608401610681565b6001600160a01b03841660009081526020819052604090209082900390555b6001600160a01b038216610d7c57600280548290039055610d9b565b6001600160a01b03821660009081526020819052604090208054820190555b816001600160a01b0316836001600160a01b03167fddf252ad1be2c89b69c2b068fc378daa952ba7f163c4a11628f55a4df523b3ef83604051610b2891815260200190565b600580546001600160a01b038381166001600160a01b0319831681179093556040519116919082907f8be0079c531659141344cd1fd0a4f28419497f9722a3daafe3b4186f6b6457e090600090a35050565b600060208083528351808285015260005b81811015610e5f57858101830151858201604001528201610e43565b506000604082860101526040601f19601f8301168501019250505092915050565b634e487b7160e01b600052604160045260246000fd5b604051601f8201601f1916810167ffffffffffffffff81118282101715610ebf57610ebf610e80565b604052919050565b600067ffffffffffffffff821115610ee157610ee1610e80565b5060051b60200190565b80356001600160a01b0381168114610f0257600080fd5b919050565b600082601f830112610f1857600080fd5b81356020610f2d610f2883610ec7565b610e96565b82815260059290921b84018101918181019086841115610f4c57600080fd5b8286015b84811015610f675780358352918301918301610f50565b509695505050505050565b60008060408385031215610f8557600080fd5b823567ffffffffffffffff80821115610f9d57600080fd5b818501915085601f830112610fb157600080fd5b81356020610fc1610f2883610ec7565b82815260059290921b84018101918181019089841115610fe057600080fd5b948201945b8386101561100557610ff686610eeb565b82529482019490820190610fe5565b9650508601359250508082111561101b57600080fd5b5061102885828601610f07565b9150509250929050565b6000806040838503121561104557600080fd5b61104e83610eeb565b946020939093013593505050565b60008060006060848603121561107157600080fd5b61107a84610eeb565b925061108860208501610eeb565b9150604084013590509250925092565b6000602082840312156110aa57600080fd5b6110b382610eeb565b9392505050565b600080604083850312156110cd57600080fd5b6110d683610eeb565b91506110e460208401610eeb565b90509250929050565b600181811c9082168061110157607f821691505b60208210810361112157634e487b7160e01b600052602260045260246000fd5b50919050565b634e487b7160e01b600052603260045260246000fd5b634e487b7160e01b600052601160045260246000fd5b6000600182016111655761116561113d565b5060010190565b6001600160a01b038481168252606060208084018290528551918401829052600092868201929091906080860190855b818110156111ba57855185168352948301949183019160010161119c565b5050858103604087015286518082529082019350915080860160005b838110156111f2578151855293820193908201906001016111d6565b509298975050505050505050565b808201808211156105c3576105c361113d565b80820281158282048414176105c3576105c361113d565b60008261124757634e487b7160e01b600052601260045260246000fd5b50049056fea26469706673582212208f25c13949d038c74acf5c2d39f639b1fa265ad4e1765ff96ee0c4f504ba27a864736f6c63430008130033",
    "linkReferences": {}
  },
  "methodIdentifiers": {
    "INITIAL_SUPPLY_CAP()": "883c3a63",
    "WAD_ONE()": "cee8d013",
    "acceptOwnership()": "79ba5097",
    "allowance(address,address)": "dd62ed3e",
    "approve(address,uint256)": "095ea7b3",
    "balanceOf(address)": "70a08231",
    "currentPeriodEnd()": "58794456",
    "currentPeriodSupplyCap()": "95dba44c",
    "decimals()": "313ce567",
    "decreaseAllowance(address,uint256)": "a457c2d7",
    "increaseAllowance(address,uint256)": "39509351",
    "inflationCapPeriod()": "41e65e0b",
    "inflationCapWad()": "0016d010",
    "inflationUnlockTime()": "5915b17e",
    "initialMintDone()": "36c545ca",
    "mintInflation(address,uint256)": "be5ddb99",
    "mintOnce(address[],uint256[])": "085624ed",
    "minter()": "07546172",
    "name()": "06fdde03",
    "owner()": "8da5cb5b",
    "pendingOwner()": "e30c3978",
    "renounceOwnership()": "715018a6",
    "setMinter(address)": "fca3b5aa",
    "symbol()": "95d89b41",
    "totalSupply()": "18160ddd",
    "transfer(address,uint256)": "a9059cbb",
    "transferFrom(address,address,uint256)": "23b872dd",
    "transferOwnership(address)": "f2fde38b"
  },
  "id": 30
}